:020000040800F2
:1000000070070020D50000089D190008CF120008D5
:1000100000000000000000000000000000000000E0
:100020000000000000000000000000009B1B000812
:100030000000000000000000991B00089D1B000844
:100040000501000800000000050100080501000886
:100050000501000805010008050100080902000863
:100060000000000005010008050100080501000866
:100070000501000805010008050100080000000056
:100080000501000800000000000000000501000854
:100090000000000005010008050100080501000836
:1000A00000000000050100080000000021200008F9
:1000B00031200008000000000000000005010008D9
:1000C0000348854600F08EF800480047F5200008F8
:1000D000700700200C4880F308880C480168090E5E
:1000E0000B4A914205D10B480B4901600B480C4962
:1000F00001600C4880470C480047FEE7FEE7FEE73A
:10010000FEE7FEE7FEE700007007002004000000A5
:100110001F00000018100240010000000000014014
:1001200000000000211C0008C100000830B50B468B
:10013000014600202022012409E00D46D5409D42C1
:1001400005D31D469540491B254695404019154647
:10015000521E002DF1DC30BD70B50024254600286C
:1001600001DA01244042002901DA01254942FFF762
:10017000DDFFAC4200D04042002C00D0494270BDAF
:1001800003460B439B0703D009E008C9121F08C0B0
:10019000042AFAD203E00B780370401C491C521E5B
:1001A000F9D27047D2B201E00270401C491EFBD266
:1001B00070470022F6E710B513460A460446194672
:1001C000FFF7F0FF204610BD30B50446002003467F
:1001D00000E05B1C934203D2E05CCD5C401BF8D096
:1001E00030BD0000064C0125064E05E0E36807CC53
:1001F0002B430C3C98471034B442F7D3FFF764FF0D
:10020000302200085022000810B5102000F016FA25
:1002100010BD70B50C467D210646C900FFF79CFF56
:1002200030252843207064213046FFF795FF0A21CE
:10023000FFF792FF294361700A213046FFF78CFFD8
:100240000E460A21FFF788FF2943A1703146294352
:10025000E17070BD1CB504460020009001907E2026
:100260006946087003224A70C5228A70C822CA7083
:10027000087101F005FF7D23DB000522694608486F
:1002800000F0C0FF962000F05BF906482168427834
:1002900012028918216080780818C01E20601CBDD9
:1002A000FC0000205A0000203EB500210091019181
:1002B00002917E216A46117007235370A323937025
:1002C0001172D179AA31D1710021435C5418E370C5
:1002D000D379445C491C1B19D3710429F5DB01F067
:1002E000CFFE7D23DB0009226946074800F08AFF24
:1002F000FA2000F025F905480078002801D00020F8
:100300003EBD01203EBD0000FC0000205A00002040
:100310003EB500210091019102917E216A46117043
:1003200007235370D62393701172D179DD31D171C7
:100330000021435C5418E370D379445C491C1B19B9
:10034000D3710429F5DB01F09BFE7D23DB0009223C
:100350006946074800F056FFC82000F0F1F805484C
:100360000078002801D000203EBD01203EBD0000E5
:10037000FC0000205A0000203EB5002100910191B0
:1003800002917E216A46117007235370DB2393701C
:100390001172D179E231D1710021435C5418E370BC
:1003A000D379445C491C1B19D3710429F5DB01F096
:1003B00067FE7D23DB0009226946074800F022FF23
:1003C000642000F0BDF805480078002801D0002026
:1003D0003EBD01203EBD0000FC0000205A00002070
:1003E0001CB50020009001907E2069460870032211
:1003F0004A70D9228A70DC22CA70087101F040FE6E
:100400007D23DB0005226946064800F0FBFE6420E0
:1004100000F096F804480078002801D000201CBDA8
:1004200001201CBDFC0000205A000020F7B588B058
:1004300004460A9801F0DAF9002557E0605D4106AC
:10044000C90F0591C106CF0F01074607C90F760FE7
:100450006846049101F04DFA684606706D1CE8B2DA
:10046000265C002F03D0401CC0B2255C11E0401C6C
:10047000C0B2255C401CC0B2215C401C09060D4383
:10048000C0B2215C401CC0B2225C090412021143BC
:100490000D43002106910499002903D0401CC0B2ED
:1004A000215C0691401CC7B23146E0196A4601F052
:1004B00042FAB819C6B20498002807D0A0196A46B3
:1004C000069901F01CFA06983018C6B2E9B2A019D4
:1004D0006A4601F022FA7019C5B268460A9901F01D
:1004E00045F9002806D00598002802D109988542D0
:1004F000A4D901200BB0F0BD70B500240146203115
:100500004A78022A03D004218163012416E002689C
:1005100013680E25AB431360026813685B085B0029
:1005200013600122056C1346AB40C56B6B604A70CB
:1005300000220A70416B002900D08847204670BD18
:1005400031B500F031F9009C0546601C00D0641CF8
:1005500000F02AF9401BA042FAD338BDF8B52F4964
:10056000002001F071FA00284CD02DA0FFF79CFE6E
:100570002D4D69462868FFF74CFE284C0421E2689F
:100580006846121D01F03EF9E0680178491C0170CF
:10059000E268062125A0143201F034F9E068017800
:1005A000491C0170204601F045F8204601F0D1F9C0
:1005B0006846FFF7ADFE0926F6061021304600F02A
:1005C000EDF80028F9D0FFF70BFFFA20FFF7B8FF8E
:1005D0001249002001F038FA00281BD00F4800F023
:1005E00099FF00280BD0E068042200696946C01C0E
:1005F000FFF7EAFD002806D06846FFF7BDFE074872
:1006000001F0A7F9F8BD0BA0FFF74EFE2868401CCB
:100610002860F4E76846FFF7AFFEF8BD1800002039
:100620007265636F0000000000000020747279742E
:1006300072790000646F6E650000000010B5044917
:100640004A69024202D04861FFF788FF10BD0000EE
:1006500000040140F8B500238DE001249C40A4462D
:1006600022407DD04C68022C01D0122C0CD1DC0829
:10067000A40027183C6A5D07ED0E0F26AE40B44378
:100680000E69AE4026433E6205685E000324B44016
:100690000F79A543BF07BF0FB7402F4307604D68D1
:1006A000012D05D0022D03D0112D01D0122D0ED118
:1006B0008568CF68A543B7402F4387604768654684
:1006C000AF430D79ED06ED0F9D403D434560C56894
:1006D000A5438C68B4402C43C4604C68E40049D501
:1006E000284CA56901263543A561A4699D083440BD
:1006F0000094254CAD002F19BC689D072E0F0F25C7
:10070000B540AC430925ED06A84201D100250FE014
:100710001E4DA84201D101250AE01D4DA84201D17C
:10072000022505E01B4DA84201D1032500E0052567
:10073000B5402543BD60184C25684E689543F603C7
:1007400000D51543256065684E689543B60300D50E
:1007500015436560A5684E689543F60202D500E032
:1007600008E01543A560E5684E689543B60200D5DC
:100770001543E5605B1C0A681446DC4000D06CE75A
:10078000F8BD0000001002400000014000040048D5
:1007900000080048000C00480004014000690840BF
:1007A00000D0012070470000014800687047000039
:1007B0000800002002480168491C016070470000E1
:1007C0000800002010B5064801681022114301609E
:1007D000002000F007F800F017F8002010BD00001E
:1007E0000020024010B5044600F05AF97D21C900EE
:1007F000FFF79CFC00F064FB00222146501E00F035
:1008000039F8002010BD000008B50F4881690122A9
:1008100011438161816911400091C26901040A4359
:10082000C261C0690022084000901146501F00F0CC
:1008300021F800221146901E00F01CF800221146FB
:10084000501E00F017F808BD00100240C106C90E86
:1008500001208840014908607047000080E100E005
:10086000C106C90E01208840014908607047000098
:1008700000E100E010B501F093F810BDF8B50546B1
:100880000068394CC00352D5E0690026C00007D487
:10089000E16920040143E161E16901400126009121
:1008A00032480168C90510D40168821511430160FE
:1008B000FFF77AFF074604E0FFF776FFC01B6428C6
:1008C00024D82A480068C005F6D5206A03273F02CD
:1008D000384020D06968394081421CD0206A226AA1
:1008E000B843012109040A432262226A8A43226230
:1008F0002062C0070FD0FFF757FF009008E0FFF716
:1009000053FF0099411A1A48814201D90320F8BDCA
:10091000206A8007F3D5206A6968B84308432062DB
:10092000002E04D0E169012000078143E1612878AD
:10093000C00705D0206BA9688008800008432063A9
:100940002878800605D5206B10218843E968084384
:1009500020632868800305D5206B8021884329699E
:10096000084320630020F8BD0010024000700040E2
:1009700088130000F8B5054644480E460068C007D5
:10098000C00FB0420AD241480168490849003143CA
:1009900001600068C007C00FB0425CD128783C4CB1
:1009A000800705D56068F0218843A9680843606026
:1009B0002878C0073FD06868012813D02168022832
:1009C00013D08907002946DA616889088900014344
:1009D0006160FFF7E9FE6968074601290DD0022929
:1009E00017D024E021688903ECE78901EAE7FFF7E3
:1009F000DBFEC11B2748814217D860680007800FC3
:100A00000128F4D117E0FFF7CFFEC11B2148814236
:100A10000BD860680007800F0228F4D10BE0FFF7C5
:100A2000C3FEC11B1B48814201D90320F8BD606889
:100A30000007800FF3D115480168C907C90FB142FB
:100A40000BD9016849084900314301600068C007BB
:100A5000C00FB04201D00120F8BD2878400706D56C
:100A60006068072109028843E9680843606000F074
:100A70002DF86168084A0906090F515CC84007490A
:100A800008600020FFF7AEFE0020F8BD0020024005
:100A90000010024088130000182200080C000020FB
:100AA00001480068704700000C0000200448054918
:100AB00000684968044A4905490F515CC8407047BD
:100AC0000C000020001002402822000830B514A3BA
:100AD0000FCB89B06C460FC415A30FCB0FC41849B8
:100AE0004A680C20144604401648042C03D04310D6
:100AF000082C02D0184609B030BD9402240F6D4670
:100B00002C5DC96A04AD0907090FD203695C920F15
:100B1000022A00D01846FFF709FB6043EBE700000C
:100B200002030405060708090A0B0C0D0E0F10102E
:100B30000102030405060708090A0B0C0D0E0F102D
:100B4000001002400024F400FEB504460078D24DA7
:100B5000C00749D068680007800F012820D0686866
:100B60000007800F022804D16868C003800F0228A4
:100B700016D0012062680004012A18D08100002AE2
:100B800001D0052A17D02A6882432A602868884342
:100B90002860606800281BD0FFF706FE064613E0B9
:100BA0002868800320D56068002876D01CE029687A
:100BB00001432960EDE72A680A432A60F7E7FFF757
:100BC000F3FD801B642869D828688003F7D50BE003
:100BD000FFF7EAFD064604E0FFF7E6FD801B642808
:100BE000F1D828688003F7D42078012680070028F0
:100BF0003DDA68680007800F13D068680007800F2F
:100C0000022804D16868C003800F012809D0E06879
:100C1000002828681CD030432860FFF7C5FD074630
:100C20000BE0286880070BD5E068012835D107E084
:100C3000FFF7BAFDC01B0228C5D828688007F7D582
:100C40002868F82188432169C900084328600EE01C
:100C5000400840002860FFF7A7FD074604E0FFF7C3
:100C6000A3FDC01B0228AED828688007F7D42078DF
:100C7000000723D5E0690028686A10D03043686215
:100C8000FFF792FD074604E0FFF78EFDC01B022828
:100C900099D8686A8007F7D510E0FAE0A4E0400828
:100CA00040006862FFF780FD074604E0FFF77CFD27
:100CB000C01B022887D8686A8007F7D420780427E9
:100CC0004007002860DA00200190E869C00008D4DD
:100CD000E969B8060143E961E96901400120009131
:100CE00001906E480168C90511D40168821511434D
:100CF0000160FFF759FD009005E0FFF755FD0099F1
:100D0000401A642870D865480068C005F5D5A06809
:100D100001280AD0002801D0052810D0286A4008F0
:100D200040002862286AB84301E0286A30432862FC
:100D3000A068002812D0FFF737FD00900AE0286A6B
:100D400038432862F1E7FFF72FFD0099411A544814
:100D5000814249D8286A8007F5D50DE0FFF724FDC8
:100D6000009006E0FFF720FD0099411A4C488142AF
:100D70003AD8286A8007F5D40198002804D0E96998
:100D8000012000078143E9612078C00635D56069FC
:100D900001280CD0401D686B23D038436863686B12
:100DA000400840006863FFF7FFFC064622E0686BDE
:100DB00038436863686B30436863FFF7F5FC0646A9
:100DC00004E0FFF7F1FC801B02285BD8686B80070A
:100DD000F7D5686BF8218843A169C90008436863A7
:100DE0000BE0B8436863F4E74CE0FFF7DDFC801BE1
:100DF000022847D8686B8007F7D4206A002846D0BD
:100E000069680907890F022943D00126360602289E
:100E1000286805D0B0432860FFF7C6FC044633E0DD
:100E2000B0432860FFF7C0FC074604E0FFF7BCFCB6
:100E3000C01B022826D828688001F7D4E86AE16A36
:100E4000000900010843E862616AA06A0843696812
:100E50007B22D203914308436860286830432860AE
:100E6000FFF7A2FC044604E0FFF79EFC001B0228EB
:100E700008D828688001F7D509E0FFF795FC001B2A
:100E8000022801D90320FEBD28688001F5D4002086
:100E9000FEBD0120FEBD00000010024000700040B9
:100EA00088130000042204490428086902D09043F2
:100EB000086170471043FBE700E000E07047000066
:100EC000094910B5401E884201D9012010BD074CC8
:100ED00060610321081F00F063FD0020A06107206E
:100EE0002061002010BD0000FFFFFF0000E000E0D7
:100EF00010B5FFF7E3FF10BD70470000F8B50368B9
:100F00000446D96918680D072D0F07D18A0605D543
:100F1000820603D5204600F049FFF8BD9A68002DEF
:100F200064D0D507ED0FFF26213606402E435DD055
:100F3000CE0706D0C60504D501261E62E36E3343F4
:100F4000E3668F0702230426002F06DAD70704D0B2
:100F500027683B62E76E3743E7664F0706D5D2073F
:100F600004D022681662E26E1A43E2660A0709D5C7
:100F7000202202402A4305D0236808221A62E36E29
:100F80001343E366E26E002AC7D0890604D58006C3
:100F900002D5204600F00AFFE06E000703D4206867
:100FA000806840061CD5204600F0E4FE2068816879
:100FB000490611D58168402291438160606E002806
:100FC0000AD012494163606EFFF796FA0028A4D058
:100FD000606E416B8847F8BD2046FFF78DFFF8BD76
:100FE0002046FFF789FF0020E066F8BD0A0605D518
:100FF000020603D5204600F0AFFFF8BD4906FCD538
:101000004006FAD5204600F0C4FEF8BD611D000878
:1010100070B5040005D025466035687A002802D0F6
:1010200006E0012070BD00202872204600F026F85E
:101030002420687220680168490849000160204640
:1010400000F0F2FE0128EDD0606A002802D02046B0
:1010500000F018FE206841680122D20291434160ED
:10106000206881680822914381602068016801221C
:1010700011430160204600F06AFE70BDF0B50668BD
:101080001E4F092000221E49022303240125C00609
:1010900087B0BE4215D18F695E0337438F6189697E
:1010A0000193314005916102009102AE34C6694658
:1010B000FFF7D0FA002211461B20FFF7DBFB1B20B5
:1010C00018E0104FBE4217D1CF690126760437438E
:1010D000CF61C9690193314005910C21009102AEA5
:1010E00034C66946FFF7B6FA002202211C20FFF73A
:1010F000C1FB1C20FFF7B4FB07B0F0BD0038014076
:101100000010024000440040F0B5034660339C7A72
:10111000202C44D100290BD0002A09D00125846855
:101120002D03AC4206D10669002E03D1CE0701D0B3
:101130000120F0BD1E7A012E31D001261E724165BC
:10114000014640310A834A83FF27AC4204D1026939
:10115000002A12D1134A0EE07F22002C08D001256C
:101160002D07AC420AD10469002C04D03F2202E0D2
:101170000469002C01D08A8300E08F830021C166BE
:1011800022229A72197201688A6832438A60006862
:101190000168FF222132114301600020F0BD0220CE
:1011A000F0BD0000FF01000070B505460068114960
:1011B000114C88420BD1114A217860785054491C57
:1011C0000E4821700122611C6430FFF79DFF0C491D
:1011D000286888420DD1094AA078E178323211544A
:1011E000401CA070044905480122C91CD430FFF7F7
:1011F0008BFF70BD00380140040000202800002053
:1012000000440040FFB5064604466036707A83B05D
:101210000D46202858D1002D0CD00598002809D063
:101220000120A1680003814207D12069002804D170
:10123000E80702D0012007B0F0BD307A012843D082
:10124000012030720020E06621207072FFF7ACFAB6
:10125000019027464037059838820598788218E033
:10126000788A401E788206980090002280212046CD
:10127000019B00F0A4FE002818D10120A168000302
:10128000814202D12069002812D02168287808857F
:101290006D1C788A0028E3D1069800900022402136
:1012A0002046019B00F08BFE002808D00320C2E7F7
:1012B00028882168C005C00D0885AD1CE9E72020FD
:1012C000707200203072B6E70220B4E77047FEE784
:1012D00070B5224886B04269012189050A434261FE
:1012E00042690A400592426949110A4342614269D2
:1012F0000A400592426949000A4342614069032459
:101300000840009400250590694602950194144810
:10131000FFF7A0F9E3206A4631C20926F6066946BE
:101320003046FFF797F9102000900E4801900120F9
:10133000029069463046FFF78DF902206A4631C2B5
:1013400069460948FFF786F9002201210720FFF7C7
:1013500091FA0720FFF784FA06B070BD0010024032
:1013600000140048000021100004004810B50D488A
:101370000B490160E1214902416000218160C160A7
:1013800001618161C1610C22016242614162FFF72A
:101390003FFE002803D04B2103A000F051FE10BDFA
:1013A000003801408C0000202E2E2F5372632F75C1
:1013B000736172742E63000010B50D480B49016013
:1013C0004B21C901416000218160C16001618161DF
:1013D000C1610C22016242614162FFF719FE0028DF
:1013E00003D0602103A000F02BFE10BD004400409C
:1013F000FC0000202E2E2F5372632F7573617274C0
:101400002E6300007FB5044640256846057001251F
:101410004570002A01D0612200E060228270C17014
:1014200006221946001DFEF7ABFE02A8227A023002
:101430006168FEF7A5FE0E21684600F061FB0028FA
:1014400006D00748017B412902D1407B002802D009
:10145000002004B070BD00F003FE0120F9E7000099
:101460002800002030B513460C46054600F027F84A
:10147000002802DB295C032901D0002030BD2A1896
:101480005178FF2904D02170801C1870012030BDD4
:10149000D17892780902114349BA2170001DF4E70E
:1014A000FF2801D2C01C00E0401D010705D0C11774
:1014B000090F0818001100011030C0B27047014632
:1014C00000200A5C002A04D0032A01D00120C04376
:1014D0007047401C1028F4DB0020C0437047802870
:1014E00001D2800700E00007002801D000207047EB
:1014F00001207047802803D280070121890702E07C
:10150000000701210907C84201D1012070470020CE
:1015100070470000F1B588B000F0D8FA2FA103C9D8
:101520000290039100206946087108700424024665
:1015300002AB21460898FFF765FF002846D004A9B2
:10154000204600F04FF8002840D001AA694604A8C0
:10155000FFF788FF002839D0684600250078FFF79C
:101560009FFF064600F022FE07463146FEF721FEA9
:101570001DE02046FFF7B3FF002807D002AB002292
:1015800021460898FFF73EFF002821D07919204610
:1015900000F028F800281BD0641C1035E4B2EDB22E
:1015A0002046FFF7A7FF002801D0641CE4B2B54233
:1015B000DFD308986946C268087909783818FEF7B9
:1015C00035FF0446384600F06BFD204609B0F0BDFB
:1015D000384600F065FD0020F8E70000D3F7D3F7A8
:1015E000D3F7000038B50C4640216A46117001213E
:1015F000517030219170D0700421684600F080FA5B
:10160000002809D00A4A107B412802D1507B0028CB
:1016100003D000F025FD002038BD054910220E3111
:101620002046FEF7ADFD00F01BFD012038BD000097
:1016300028000020F1B584B000F048FA0498C06892
:1016400000F0C3F8C4B2204600F0B0FD214600907F
:10165000FEF7AFFD0498C168009800F097F82046A7
:10166000FFF71EFF801CC6B2304600F09FFD054606
:101670003146FEF79EFD0320FE27FF2CA87008D2FE
:10168000EC702246281D0099FEF77AFD2819477153
:101690000BE0FF20E870200A28716C712246A81D1B
:1016A0000099FEF76DFD2819C7711CA103C9002719
:1016B0000424029101901DE02046FFF710FF00284E
:1016C00007D001AB002221460498FFF79BFE0028BB
:1016D0001BD0E919204600F025F8002815D0641C1D
:1016E0001037E4B2FFB22046FFF704FF002801D014
:1016F000641CE4B2B742DFD3284600F0D1FC009866
:1017000000F0CEFC012005B0F0BD284600F0C8FC7A
:10171000009800F0C5FC0020F5E70000D3F7D3F7F0
:10172000D3F7000000B585B040236A46137001234B
:101730005370A0239370D070102201A8FEF720FDF3
:101740001421684600F0DCF9002808D00648407BE8
:10175000002804D000F084FC002005B000BD00F09B
:101760007FFC0120F9E700002800002030B50A784E
:10177000042A09D239C812015218121D39C2087838
:10178000401C0870012030BD002030BDF8B50F4668
:101790000646002413E02101CD192B1D611C88424F
:1017A00001D1012200E00022002C0CD000213046A3
:1017B00000F058F8281D00F07FF88619641C38786E
:1017C000A042E8DCF8BD0121F1E770B5002506462E
:1017D0002C4606E020018019001D00F06DF8451927
:1017E000641C3078A042F5DC284670BD70B5054613
:1017F000002420014019001D00F07BF8641C042C1B
:10180000F7DB70BDF7B582B017460C46104600F006
:1018100070F80120387012A0006800903A4601214B
:10182000684600F088F8E51C284600F0BFFC064634
:1018300002220121FEF7B6FC652070706E20B070A8
:101840002246F01C0299FEF79BFCE9B23A4630466C
:1018500000F063F8304600F023FC05B0F0BD000056
:101860005400000070B51D4613460C4606462A4635
:101870001946204600F02CF8307069787170A9780C
:10188000B170E878F41C002801D02070641C6A78DC
:1018900020466968FEF774FC6878AA780419204627
:1018A000E968FEF76DFCA878EA780019002A02D0F2
:1018B000A968FEF765FC70BDC2780321002A00D03C
:1018C000042143788078511818184018C0B2704726
:1018D0001378002801D080200343002901D0402044
:1018E00003431020D1781843002901D00821084370
:1018F0007047002101704170C1708170704770B5F0
:10190000064615460C46084600F050FC2246314675
:10191000A860FEF735FCEC7070BD70B50646154644
:101920000C46084600F042FC22463146E860FEF7CD
:1019300027FCAC7070BD70B5064615460C460846CF
:1019400000F034FC224631466860FEF719FC6C70EA
:1019500070BDF8B50446C06800281ED0002611E00E
:101960003501A91D2F46415C1037C059FEF721FCF7
:10197000E068C05900F094FBE0680835405900F079
:101980008FFB761CE0680178B142E9DC0025057028
:10199000606800F085FB25702572F8BD7047000077
:1019A0008307FF22DB0E9A408907090E9940002821
:1019B0000BDA0007000F0838830808489B00181846
:1019C000C36993430B43C3617047830804489B007A
:1019D0001B181868904308431860704700ED00E03A
:1019E00000E400E01CB507A103C9019100900622A4
:1019F00006496846FEF7E8FB002801D000201CBD20
:101A000001201CBD0000FF00FF0000002800002096
:101A100030B500220B210B4B841E03E05D5CAA183D
:101A2000D2B2491CA142F9DBFF211818013120383C
:101A3000891A807FC9B2884201D0002030BD0120C0
:101A400030BD00002800002038B50C464A22694607
:101A50000A7001224A7088700321684600F050F82D
:101A600000281BD00F48417A0C2903D10421217290
:101A700000212170407A0F2803D107202072022014
:101A80002070207A00F092FB06496060227A1331C0
:101A9000FEF776FB00F0E4FA012038BD00F0E0FA32
:101AA000002038BD2800002008B514206A461070B8
:101AB000012151709070D1700421684600F020F827
:101AC0000028F9D000F0CCFA08BD00001CB508A130
:101AD00003C901910090084B062269460748FFF7A9
:101AE00091FB06480068C169C9430906FBD41CBDC7
:101AF0005555000000000000FFFF00008C00002092
:101B0000F0B50C4699B0002669460E70FF224E7063
:101B10008A70651C571CCD707A1B0A71D4224A71D9
:101B2000014601A822460230FEF72AFBA41DE2B2BC
:101B30000021684604E043185B799B19DEB2491C1A
:101B4000A942F8DBB91B8154521CD1B20022425485
:101B5000491CCAB201460D4B0D48FFF753FB9620B6
:101B6000FEF7EEFC0B4C2078002809D0FFF73AFF77
:101B7000002807D02078FFF74BFF002802D0012073
:101B800019B0F0BD00F06CFA0020F9E7FFFF00008B
:101B90008C000020040000207047704710B5FEF74D
:101BA00009FEFFF7A5F910BD70B596B0102002240C
:101BB00004900126C0020025009403960990089421
:101BC0000A950B956846FEF7BFFF002800D0FEE798
:101BD00007200C9080200E900D9400210F950CA8EA
:101BE000FEF7C8FE002800D0FEE710A81096129558
:101BF000FEF744FE002800D0FEE7FEF751FF7D21EE
:101C0000C900FEF793FAFFF75BF90420FFF74AF9E2
:101C100000221146501EFEF72DFE16B070BD0000CA
:101C2000154801680122114301604168134A1140BF
:101C300041600168124A114001600168012292046A
:101C40009143016041683F22120491434160C16A9F
:101C500009090901C162016BFF22943291430163BA
:101C6000016B802211430163416B490849004163C4
:101C70000021816070470000001002400CB8FF088E
:101C8000FFFFF6FE10B5818CC90707D001684A68CE
:101C900001235B049A43836A1A434A60818C890753
:101CA00007D501684A6801231B049A43C36A1A4393
:101CB0004A60818C490707D501684A6801239B0463
:101CC0009A43036B1A434A60818C090707D5016860
:101CD0004A680123DB039A43436B1A434A60818CB1
:101CE000C90607D50268916801231B039943836BDA
:101CF00019439160818C890607D501688A680123A0
:101D00005B039A43C36B1A438A60818C490612D5E0
:101D100003685A6801210905046C8A4322435A600A
:101D2000026C8A4207D10268516803235B0599431C
:101D3000436C19435160818C090607D501684A68D4
:101D40000123DB04806C9A4302434A6010BD0021EA
:101D5000C16620226030427282720172084670476A
:101D600010B5406A0022014640314A834A82FFF79B
:101D7000C3F810BD01680A68FF2321339A430A6043
:101D800001688A68520852008A602021603081729E
:101D9000704710B501680A6840239A430A60202200
:101DA00069210A54FFF792FA002010BD70B502466F
:101DB000403203466033948B9D7A0168222D05D012
:101DC0008869082210438861022070BD898C012631
:101DD00085683603B54202D10569002D0BD021403C
:101DE000446D651C45652170518B491E0904090C21
:101DF000518307D015E0456D21402980416D891C34
:101E00004165F1E701680A68FF242134A2430A60B2
:101E100001688A68520852008A6020219972FFF78F
:101E2000C3F9002070BD0000F8B504462369A2681C
:101E3000E5691A43636910202B43002125681A4382
:101E40002B680E463E4F3B4013432B6023685A6875
:101E500003252D03AA43E5682A435A60236AA26931
:101E600025681A43AB680B273F02BB431343AB60A3
:101E7000344A2568954210D1334A126B9207920F6B
:101E80000ED0012A05D0022A05D0032A09D102204A
:101E900007E0042005E0082003E02C4A954200D129
:101EA00000200122E369D203934224D100280CD000
:101EB00002280DD0042813D0082817D001260A09BB
:101EC00012010807400F10432FE0FEF7EFFD09E075
:101ED00061681F4A48088018FEF728F981B2EEE7CA
:101EE000FEF7F4FD616840004A08F4E761680122EA
:101EF00048081204EFE7002808D0022809D0042877
:101F00000BD0082814D001263046F8BDFEF7CEFDD0
:101F100005E061680F4A48080CE0FEF7D7FD6168EC
:101F20004A088018FEF702F980B22168C860EBE722
:101F3000616848088018FEF7F9F880B2E860E3E7C6
:101F4000F369FFEF003801400010024000440040F8
:101F50000024F40000127A006921095C212901D0D3
:101F60000220704702464032518A002912D00123D4
:101F700081681B03994202D10169002915D0C16C07
:101F80004B1CC364006809780185508A401E50824A
:101F90000020704701680A6880239A430A6000683D
:101FA0000168402211430160F2E7C16C03680988AF
:101FB000C905C90D1985C16C891CC164E5E7FFB568
:101FC00081B017460E4604460A9D1DE0681C1BD0D2
:101FD000002D05D0FEF7E8FB0499401AA84213D95A
:101FE00020680168FF22A132914301602068816866
:101FF000490849008160202060346072A07200208E
:102000002072032005B0F0BD2068C16930468843C6
:1020100004D00020B842D9D00020F3E70120F9E72E
:1020200010B50248FEF76AFF10BD00008C000020CA
:1020300010B50248FEF762FF10BD0000FC00002052
:10204000FEE702E008C8121F08C1002AFAD1704753
:102050007047002001E001C1121F002AFBD1704728
:10206000054A002110781170044A02E0401EC0B2F7
:1020700011540028FAD170470400002028000020E5
:10208000054A002190789170044A02E0401EC0B2D7
:1020900011540028FAD17047040000205A00002093
:1020A00010B5002823D0124B0022001F196803E04E
:1020B000814203D80A4649680029F9D1002A0AD08A
:1020C0001368841A9C4204D10068181810601046E6
:1020D00002E0506000E01860002907D002680B1A87
:1020E000934203D10B68D21802604968416010BD69
:1020F00010000020FEF766FBFFF756FDFFF7E8F83B
:10210000FFF734F9FFF758F97D20C000FEF718FA01
:1021100001221E491E48FEF7F7FF01221D491E48F5
:10212000FEF7F2FFFFF7D2FCFFF7BEFC1B48FEF7FD
:1021300091F81BA0FEF7B8F8442000F037F81A4CCD
:10214000FF252D35FF26F536E0602846FEF7F8F925
:102150000720FEF77BFB14490020FFF775FC0028E1
:102160000FD01148FFF7D6F9002807D0E0680069C2
:10217000C01CFEF799F83046FEF7E2F90A48FFF76F
:10218000E8FB0720FEF76CFBDFE7000005000020FE
:102190008C00002007000020FC0000200000002030
:1021A000706F77650000000018000020F0B50B305C
:1021B000C108C900144F0026144A0FE003688B427F
:1021C0000BD38B4205D95C1A4318456830C3083BD2
:1021D00000E04368136002C004E0021D106800289C
:1021E000ECD13046002803D13868002801D0002007
:1021F000F0BD064A06481060064A121AD208D200FC
:1022000044C001203860D7E71400002010000020EF
:102210007401002070030020000000000000000096
:10222000010203040607080900000000010203047C
:102230005022000800000020180000004220000882
:1022400068220008180000205807000052200008EB
:1022500000000000000000000000000000127A00F2
:08226000000000000000000076
:04000005080000C12E
:00000001FF
